{
  "_format": "hh-sol-artifact-1",
  "contractName": "MemoryMatchNFT",
  "sourceName": "contracts/MemoryMatchNFT.sol",
  "abi": [
    {
      "inputs": [],
      "stateMutability": "nonpayable",
      "type": "constructor"
    },
    {
      "inputs": [
        {
          "internalType": "address",
          "name": "sender",
          "type": "address"
        },
        {
          "internalType": "uint256",
          "name": "balance",
          "type": "uint256"
        },
        {
          "internalType": "uint256",
          "name": "needed",
          "type": "uint256"
        },
        {
          "internalType": "uint256",
          "name": "tokenId",
          "type": "uint256"
        }
      ],
      "name": "ERC1155InsufficientBalance",
      "type": "error"
    },
    {
      "inputs": [
        {
          "internalType": "address",
          "name": "approver",
          "type": "address"
        }
      ],
      "name": "ERC1155InvalidApprover",
      "type": "error"
    },
    {
      "inputs": [
        {
          "internalType": "uint256",
          "name": "idsLength",
          "type": "uint256"
        },
        {
          "internalType": "uint256",
          "name": "valuesLength",
          "type": "uint256"
        }
      ],
      "name": "ERC1155InvalidArrayLength",
      "type": "error"
    },
    {
      "inputs": [
        {
          "internalType": "address",
          "name": "operator",
          "type": "address"
        }
      ],
      "name": "ERC1155InvalidOperator",
      "type": "error"
    },
    {
      "inputs": [
        {
          "internalType": "address",
          "name": "receiver",
          "type": "address"
        }
      ],
      "name": "ERC1155InvalidReceiver",
      "type": "error"
    },
    {
      "inputs": [
        {
          "internalType": "address",
          "name": "sender",
          "type": "address"
        }
      ],
      "name": "ERC1155InvalidSender",
      "type": "error"
    },
    {
      "inputs": [
        {
          "internalType": "address",
          "name": "operator",
          "type": "address"
        },
        {
          "internalType": "address",
          "name": "owner",
          "type": "address"
        }
      ],
      "name": "ERC1155MissingApprovalForAll",
      "type": "error"
    },
    {
      "inputs": [
        {
          "internalType": "address",
          "name": "owner",
          "type": "address"
        }
      ],
      "name": "OwnableInvalidOwner",
      "type": "error"
    },
    {
      "inputs": [
        {
          "internalType": "address",
          "name": "account",
          "type": "address"
        }
      ],
      "name": "OwnableUnauthorizedAccount",
      "type": "error"
    },
    {
      "anonymous": false,
      "inputs": [
        {
          "indexed": true,
          "internalType": "address",
          "name": "account",
          "type": "address"
        },
        {
          "indexed": true,
          "internalType": "address",
          "name": "operator",
          "type": "address"
        },
        {
          "indexed": false,
          "internalType": "bool",
          "name": "approved",
          "type": "bool"
        }
      ],
      "name": "ApprovalForAll",
      "type": "event"
    },
    {
      "anonymous": false,
      "inputs": [
        {
          "indexed": true,
          "internalType": "address",
          "name": "previousOwner",
          "type": "address"
        },
        {
          "indexed": true,
          "internalType": "address",
          "name": "newOwner",
          "type": "address"
        }
      ],
      "name": "OwnershipTransferred",
      "type": "event"
    },
    {
      "anonymous": false,
      "inputs": [
        {
          "indexed": true,
          "internalType": "address",
          "name": "operator",
          "type": "address"
        },
        {
          "indexed": true,
          "internalType": "address",
          "name": "from",
          "type": "address"
        },
        {
          "indexed": true,
          "internalType": "address",
          "name": "to",
          "type": "address"
        },
        {
          "indexed": false,
          "internalType": "uint256[]",
          "name": "ids",
          "type": "uint256[]"
        },
        {
          "indexed": false,
          "internalType": "uint256[]",
          "name": "values",
          "type": "uint256[]"
        }
      ],
      "name": "TransferBatch",
      "type": "event"
    },
    {
      "anonymous": false,
      "inputs": [
        {
          "indexed": true,
          "internalType": "address",
          "name": "operator",
          "type": "address"
        },
        {
          "indexed": true,
          "internalType": "address",
          "name": "from",
          "type": "address"
        },
        {
          "indexed": true,
          "internalType": "address",
          "name": "to",
          "type": "address"
        },
        {
          "indexed": false,
          "internalType": "uint256",
          "name": "id",
          "type": "uint256"
        },
        {
          "indexed": false,
          "internalType": "uint256",
          "name": "value",
          "type": "uint256"
        }
      ],
      "name": "TransferSingle",
      "type": "event"
    },
    {
      "anonymous": false,
      "inputs": [
        {
          "indexed": false,
          "internalType": "string",
          "name": "value",
          "type": "string"
        },
        {
          "indexed": true,
          "internalType": "uint256",
          "name": "id",
          "type": "uint256"
        }
      ],
      "name": "URI",
      "type": "event"
    },
    {
      "inputs": [],
      "name": "_tokenIdCounter",
      "outputs": [
        {
          "internalType": "uint256",
          "name": "",
          "type": "uint256"
        }
      ],
      "stateMutability": "view",
      "type": "function"
    },
    {
      "inputs": [
        {
          "internalType": "address",
          "name": "account",
          "type": "address"
        },
        {
          "internalType": "uint256",
          "name": "id",
          "type": "uint256"
        }
      ],
      "name": "balanceOf",
      "outputs": [
        {
          "internalType": "uint256",
          "name": "",
          "type": "uint256"
        }
      ],
      "stateMutability": "view",
      "type": "function"
    },
    {
      "inputs": [
        {
          "internalType": "address[]",
          "name": "accounts",
          "type": "address[]"
        },
        {
          "internalType": "uint256[]",
          "name": "ids",
          "type": "uint256[]"
        }
      ],
      "name": "balanceOfBatch",
      "outputs": [
        {
          "internalType": "uint256[]",
          "name": "",
          "type": "uint256[]"
        }
      ],
      "stateMutability": "view",
      "type": "function"
    },
    {
      "inputs": [
        {
          "internalType": "address",
          "name": "account",
          "type": "address"
        },
        {
          "internalType": "address",
          "name": "operator",
          "type": "address"
        }
      ],
      "name": "isApprovedForAll",
      "outputs": [
        {
          "internalType": "bool",
          "name": "",
          "type": "bool"
        }
      ],
      "stateMutability": "view",
      "type": "function"
    },
    {
      "inputs": [
        {
          "internalType": "address",
          "name": "to",
          "type": "address"
        },
        {
          "internalType": "string",
          "name": "tokenURI",
          "type": "string"
        }
      ],
      "name": "mintNFT",
      "outputs": [
        {
          "internalType": "uint256",
          "name": "",
          "type": "uint256"
        }
      ],
      "stateMutability": "nonpayable",
      "type": "function"
    },
    {
      "inputs": [],
      "name": "owner",
      "outputs": [
        {
          "internalType": "address",
          "name": "",
          "type": "address"
        }
      ],
      "stateMutability": "view",
      "type": "function"
    },
    {
      "inputs": [],
      "name": "renounceOwnership",
      "outputs": [],
      "stateMutability": "nonpayable",
      "type": "function"
    },
    {
      "inputs": [
        {
          "internalType": "address",
          "name": "from",
          "type": "address"
        },
        {
          "internalType": "address",
          "name": "to",
          "type": "address"
        },
        {
          "internalType": "uint256[]",
          "name": "ids",
          "type": "uint256[]"
        },
        {
          "internalType": "uint256[]",
          "name": "values",
          "type": "uint256[]"
        },
        {
          "internalType": "bytes",
          "name": "data",
          "type": "bytes"
        }
      ],
      "name": "safeBatchTransferFrom",
      "outputs": [],
      "stateMutability": "nonpayable",
      "type": "function"
    },
    {
      "inputs": [
        {
          "internalType": "address",
          "name": "from",
          "type": "address"
        },
        {
          "internalType": "address",
          "name": "to",
          "type": "address"
        },
        {
          "internalType": "uint256",
          "name": "id",
          "type": "uint256"
        },
        {
          "internalType": "uint256",
          "name": "value",
          "type": "uint256"
        },
        {
          "internalType": "bytes",
          "name": "data",
          "type": "bytes"
        }
      ],
      "name": "safeTransferFrom",
      "outputs": [],
      "stateMutability": "nonpayable",
      "type": "function"
    },
    {
      "inputs": [
        {
          "internalType": "address",
          "name": "operator",
          "type": "address"
        },
        {
          "internalType": "bool",
          "name": "approved",
          "type": "bool"
        }
      ],
      "name": "setApprovalForAll",
      "outputs": [],
      "stateMutability": "nonpayable",
      "type": "function"
    },
    {
      "inputs": [
        {
          "internalType": "bytes4",
          "name": "interfaceId",
          "type": "bytes4"
        }
      ],
      "name": "supportsInterface",
      "outputs": [
        {
          "internalType": "bool",
          "name": "",
          "type": "bool"
        }
      ],
      "stateMutability": "view",
      "type": "function"
    },
    {
      "inputs": [
        {
          "internalType": "address",
          "name": "newOwner",
          "type": "address"
        }
      ],
      "name": "transferOwnership",
      "outputs": [],
      "stateMutability": "nonpayable",
      "type": "function"
    },
    {
      "inputs": [
        {
          "internalType": "uint256",
          "name": "tokenId",
          "type": "uint256"
        }
      ],
      "name": "uri",
      "outputs": [
        {
          "internalType": "string",
          "name": "",
          "type": "string"
        }
      ],
      "stateMutability": "view",
      "type": "function"
    }
  ],
  "bytecode": "0x60806040523480156200001157600080fd5b5033604051806020016040528060008152506200003481620000ca60201b60201c565b50600073ffffffffffffffffffffffffffffffffffffffff168173ffffffffffffffffffffffffffffffffffffffff1603620000aa5760006040517f1e4fbdf7000000000000000000000000000000000000000000000000000000008152600401620000a19190620001ea565b60405180910390fd5b620000bb81620000df60201b60201c565b50600060048190555062000568565b8060029081620000db919062000481565b5050565b6000600360009054906101000a900473ffffffffffffffffffffffffffffffffffffffff16905081600360006101000a81548173ffffffffffffffffffffffffffffffffffffffff021916908373ffffffffffffffffffffffffffffffffffffffff1602179055508173ffffffffffffffffffffffffffffffffffffffff168173ffffffffffffffffffffffffffffffffffffffff167f8be0079c531659141344cd1fd0a4f28419497f9722a3daafe3b4186f6b6457e060405160405180910390a35050565b600073ffffffffffffffffffffffffffffffffffffffff82169050919050565b6000620001d282620001a5565b9050919050565b620001e481620001c5565b82525050565b6000602082019050620002016000830184620001d9565b92915050565b600081519050919050565b7f4e487b7100000000000000000000000000000000000000000000000000000000600052604160045260246000fd5b7f4e487b7100000000000000000000000000000000000000000000000000000000600052602260045260246000fd5b600060028204905060018216806200028957607f821691505b6020821081036200029f576200029e62000241565b5b50919050565b60008190508160005260206000209050919050565b60006020601f8301049050919050565b600082821b905092915050565b600060088302620003097fffffffffffffffffffffffffffffffffffffffffffffffffffffffffffffffff82620002ca565b620003158683620002ca565b95508019841693508086168417925050509392505050565b6000819050919050565b6000819050919050565b6000620003626200035c62000356846200032d565b62000337565b6200032d565b9050919050565b6000819050919050565b6200037e8362000341565b620003966200038d8262000369565b848454620002d7565b825550505050565b600090565b620003ad6200039e565b620003ba81848462000373565b505050565b5b81811015620003e257620003d6600082620003a3565b600181019050620003c0565b5050565b601f8211156200043157620003fb81620002a5565b6200040684620002ba565b8101602085101562000416578190505b6200042e6200042585620002ba565b830182620003bf565b50505b505050565b600082821c905092915050565b6000620004566000198460080262000436565b1980831691505092915050565b600062000471838362000443565b9150826002028217905092915050565b6200048c8262000207565b67ffffffffffffffff811115620004a857620004a762000212565b5b620004b4825462000270565b620004c1828285620003e6565b600060209050601f831160018114620004f95760008415620004e4578287015190505b620004f0858262000463565b86555062000560565b601f1984166200050986620002a5565b60005b8281101562000533578489015182556001820191506020850194506020810190506200050c565b868310156200055357848901516200054f601f89168262000443565b8355505b6001600288020188555050505b505050505050565b6126ff80620005786000396000f3fe608060405234801561001057600080fd5b50600436106100ce5760003560e01c806384c4bd4b1161008c578063e985e9c511610066578063e985e9c514610211578063eacabe1414610241578063f242432a14610271578063f2fde38b1461028d576100ce565b806384c4bd4b146101b95780638da5cb5b146101d7578063a22cb465146101f5576100ce565b8062fdd58e146100d357806301ffc9a7146101035780630e89341c146101335780632eb2c2d6146101635780634e1273f41461017f578063715018a6146101af575b600080fd5b6100ed60048036038101906100e89190611768565b6102a9565b6040516100fa91906117b7565b60405180910390f35b61011d6004803603810190610118919061182a565b610303565b60405161012a9190611872565b60405180910390f35b61014d6004803603810190610148919061188d565b6103e5565b60405161015a919061194a565b60405180910390f35b61017d60048036038101906101789190611b69565b61048a565b005b61019960048036038101906101949190611cfb565b610532565b6040516101a69190611e31565b60405180910390f35b6101b7610641565b005b6101c1610655565b6040516101ce91906117b7565b60405180910390f35b6101df61065b565b6040516101ec9190611e62565b60405180910390f35b61020f600480360381019061020a9190611ea9565b610685565b005b61022b60048036038101906102269190611ee9565b61069b565b6040516102389190611872565b60405180910390f35b61025b60048036038101906102569190611fca565b61072f565b60405161026891906117b7565b60405180910390f35b61028b60048036038101906102869190612026565b610782565b005b6102a760048036038101906102a291906120bd565b61082a565b005b600080600083815260200190815260200160002060008473ffffffffffffffffffffffffffffffffffffffff1673ffffffffffffffffffffffffffffffffffffffff16815260200190815260200160002054905092915050565b60007fd9b67a26000000000000000000000000000000000000000000000000000000007bffffffffffffffffffffffffffffffffffffffffffffffffffffffff1916827bffffffffffffffffffffffffffffffffffffffffffffffffffffffff191614806103ce57507f0e89341c000000000000000000000000000000000000000000000000000000007bffffffffffffffffffffffffffffffffffffffffffffffffffffffff1916827bffffffffffffffffffffffffffffffffffffffffffffffffffffffff1916145b806103de57506103dd826108b0565b5b9050919050565b606060056000838152602001908152602001600020805461040590612119565b80601f016020809104026020016040519081016040528092919081815260200182805461043190612119565b801561047e5780601f106104535761010080835404028352916020019161047e565b820191906000526020600020905b81548152906001019060200180831161046157829003601f168201915b50505050509050919050565b600061049461091a565b90508073ffffffffffffffffffffffffffffffffffffffff168673ffffffffffffffffffffffffffffffffffffffff16141580156104d957506104d7868261069b565b155b1561051d5780866040517fe237d92200000000000000000000000000000000000000000000000000000000815260040161051492919061214a565b60405180910390fd5b61052a8686868686610922565b505050505050565b6060815183511461057e57815183516040517f5b059991000000000000000000000000000000000000000000000000000000008152600401610575929190612173565b60405180910390fd5b6000835167ffffffffffffffff81111561059b5761059a611971565b5b6040519080825280602002602001820160405280156105c95781602001602082028036833780820191505090505b50905060005b8451811015610636576106066105ee8287610a1a90919063ffffffff16565b6106018387610a2e90919063ffffffff16565b6102a9565b8282815181106106195761061861219c565b5b6020026020010181815250508061062f906121fa565b90506105cf565b508091505092915050565b610649610a42565b6106536000610ac9565b565b60045481565b6000600360009054906101000a900473ffffffffffffffffffffffffffffffffffffffff16905090565b61069761069061091a565b8383610b8f565b5050565b6000600160008473ffffffffffffffffffffffffffffffffffffffff1673ffffffffffffffffffffffffffffffffffffffff16815260200190815260200160002060008373ffffffffffffffffffffffffffffffffffffffff1673ffffffffffffffffffffffffffffffffffffffff16815260200190815260200160002060009054906101000a900460ff16905092915050565b60006001600460008282546107449190612242565b925050819055506000600454905061076e8482600160405180602001604052806000815250610cff565b6107788184610d98565b8091505092915050565b600061078c61091a565b90508073ffffffffffffffffffffffffffffffffffffffff168673ffffffffffffffffffffffffffffffffffffffff16141580156107d157506107cf868261069b565b155b156108155780866040517fe237d92200000000000000000000000000000000000000000000000000000000815260040161080c92919061214a565b60405180910390fd5b6108228686868686610dbd565b505050505050565b610832610a42565b600073ffffffffffffffffffffffffffffffffffffffff168173ffffffffffffffffffffffffffffffffffffffff16036108a45760006040517f1e4fbdf700000000000000000000000000000000000000000000000000000000815260040161089b9190611e62565b60405180910390fd5b6108ad81610ac9565b50565b60007f01ffc9a7000000000000000000000000000000000000000000000000000000007bffffffffffffffffffffffffffffffffffffffffffffffffffffffff1916827bffffffffffffffffffffffffffffffffffffffffffffffffffffffff1916149050919050565b600033905090565b600073ffffffffffffffffffffffffffffffffffffffff168473ffffffffffffffffffffffffffffffffffffffff16036109945760006040517f57f447ce00000000000000000000000000000000000000000000000000000000815260040161098b9190611e62565b60405180910390fd5b600073ffffffffffffffffffffffffffffffffffffffff168573ffffffffffffffffffffffffffffffffffffffff1603610a065760006040517f01a835140000000000000000000000000000000000000000000000000000000081526004016109fd9190611e62565b60405180910390fd5b610a138585858585610ec8565b5050505050565b600060208202602084010151905092915050565b600060208202602084010151905092915050565b610a4a61091a565b73ffffffffffffffffffffffffffffffffffffffff16610a6861065b565b73ffffffffffffffffffffffffffffffffffffffff1614610ac757610a8b61091a565b6040517f118cdaa7000000000000000000000000000000000000000000000000000000008152600401610abe9190611e62565b60405180910390fd5b565b6000600360009054906101000a900473ffffffffffffffffffffffffffffffffffffffff16905081600360006101000a81548173ffffffffffffffffffffffffffffffffffffffff021916908373ffffffffffffffffffffffffffffffffffffffff1602179055508173ffffffffffffffffffffffffffffffffffffffff168173ffffffffffffffffffffffffffffffffffffffff167f8be0079c531659141344cd1fd0a4f28419497f9722a3daafe3b4186f6b6457e060405160405180910390a35050565b600073ffffffffffffffffffffffffffffffffffffffff168273ffffffffffffffffffffffffffffffffffffffff1603610c015760006040517fced3e100000000000000000000000000000000000000000000000000000000008152600401610bf89190611e62565b60405180910390fd5b80600160008573ffffffffffffffffffffffffffffffffffffffff1673ffffffffffffffffffffffffffffffffffffffff16815260200190815260200160002060008473ffffffffffffffffffffffffffffffffffffffff1673ffffffffffffffffffffffffffffffffffffffff16815260200190815260200160002060006101000a81548160ff0219169083151502179055508173ffffffffffffffffffffffffffffffffffffffff168373ffffffffffffffffffffffffffffffffffffffff167f17307eab39ab6107e8899845ad3d59bd9653f200f220920489ca2b5937696c3183604051610cf29190611872565b60405180910390a3505050565b600073ffffffffffffffffffffffffffffffffffffffff168473ffffffffffffffffffffffffffffffffffffffff1603610d715760006040517f57f447ce000000000000000000000000000000000000000000000000000000008152600401610d689190611e62565b60405180910390fd5b600080610d7e8585610f7a565b91509150610d90600087848487610ec8565b505050505050565b80600560008481526020019081526020016000209081610db89190612422565b505050565b600073ffffffffffffffffffffffffffffffffffffffff168473ffffffffffffffffffffffffffffffffffffffff1603610e2f5760006040517f57f447ce000000000000000000000000000000000000000000000000000000008152600401610e269190611e62565b60405180910390fd5b600073ffffffffffffffffffffffffffffffffffffffff168573ffffffffffffffffffffffffffffffffffffffff1603610ea15760006040517f01a83514000000000000000000000000000000000000000000000000000000008152600401610e989190611e62565b60405180910390fd5b600080610eae8585610f7a565b91509150610ebf8787848487610ec8565b50505050505050565b610ed485858585610faa565b600073ffffffffffffffffffffffffffffffffffffffff168473ffffffffffffffffffffffffffffffffffffffff1614610f73576000610f1261091a565b90506001845103610f62576000610f33600086610a2e90919063ffffffff16565b90506000610f4b600086610a2e90919063ffffffff16565b9050610f5b838989858589611358565b5050610f71565b610f7081878787878761150c565b5b505b5050505050565b60608060405191506001825283602083015260408201905060018152826020820152604081016040529250929050565b8051825114610ff457815181516040517f5b059991000000000000000000000000000000000000000000000000000000008152600401610feb929190612173565b60405180910390fd5b6000610ffe61091a565b905060005b83518110156112135760006110218286610a2e90919063ffffffff16565b905060006110388386610a2e90919063ffffffff16565b9050600073ffffffffffffffffffffffffffffffffffffffff168873ffffffffffffffffffffffffffffffffffffffff161461116557600080600084815260200190815260200160002060008a73ffffffffffffffffffffffffffffffffffffffff1673ffffffffffffffffffffffffffffffffffffffff1681526020019081526020016000205490508181101561110d57888183856040517f03dee4c500000000000000000000000000000000000000000000000000000000815260040161110494939291906124f4565b60405180910390fd5b81810360008085815260200190815260200160002060008b73ffffffffffffffffffffffffffffffffffffffff1673ffffffffffffffffffffffffffffffffffffffff16815260200190815260200160002081905550505b600073ffffffffffffffffffffffffffffffffffffffff168773ffffffffffffffffffffffffffffffffffffffff1614611200578060008084815260200190815260200160002060008973ffffffffffffffffffffffffffffffffffffffff1673ffffffffffffffffffffffffffffffffffffffff16815260200190815260200160002060008282546111f89190612242565b925050819055505b50508061120c906121fa565b9050611003565b5060018351036112d2576000611233600085610a2e90919063ffffffff16565b9050600061124b600085610a2e90919063ffffffff16565b90508573ffffffffffffffffffffffffffffffffffffffff168773ffffffffffffffffffffffffffffffffffffffff168473ffffffffffffffffffffffffffffffffffffffff167fc3d58168c5ae7397731d063d5bbf3d657854427343f4c083240f7aacaa2d0f6285856040516112c3929190612173565b60405180910390a45050611351565b8373ffffffffffffffffffffffffffffffffffffffff168573ffffffffffffffffffffffffffffffffffffffff168273ffffffffffffffffffffffffffffffffffffffff167f4a39dc06d4c0dbc64b70af90fd698a233a518aa5d07e595d983b8c0526c8f7fb8686604051611348929190612539565b60405180910390a45b5050505050565b60008473ffffffffffffffffffffffffffffffffffffffff163b1115611504578373ffffffffffffffffffffffffffffffffffffffff1663f23a6e6187878686866040518663ffffffff1660e01b81526004016113b99594939291906125c5565b6020604051808303816000875af19250505080156113f557506040513d601f19601f820116820180604052508101906113f29190612634565b60015b611479573d8060008114611425576040519150601f19603f3d011682016040523d82523d6000602084013e61142a565b606091505b50600081510361147157846040517f57f447ce0000000000000000000000000000000000000000000000000000000081526004016114689190611e62565b60405180910390fd5b805181602001fd5b63f23a6e6160e01b7bffffffffffffffffffffffffffffffffffffffffffffffffffffffff1916817bffffffffffffffffffffffffffffffffffffffffffffffffffffffff19161461150257846040517f57f447ce0000000000000000000000000000000000000000000000000000000081526004016114f99190611e62565b60405180910390fd5b505b505050505050565b60008473ffffffffffffffffffffffffffffffffffffffff163b11156116b8578373ffffffffffffffffffffffffffffffffffffffff1663bc197c8187878686866040518663ffffffff1660e01b815260040161156d959493929190612661565b6020604051808303816000875af19250505080156115a957506040513d601f19601f820116820180604052508101906115a69190612634565b60015b61162d573d80600081146115d9576040519150601f19603f3d011682016040523d82523d6000602084013e6115de565b606091505b50600081510361162557846040517f57f447ce00000000000000000000000000000000000000000000000000000000815260040161161c9190611e62565b60405180910390fd5b805181602001fd5b63bc197c8160e01b7bffffffffffffffffffffffffffffffffffffffffffffffffffffffff1916817bffffffffffffffffffffffffffffffffffffffffffffffffffffffff1916146116b657846040517f57f447ce0000000000000000000000000000000000000000000000000000000081526004016116ad9190611e62565b60405180910390fd5b505b505050505050565b6000604051905090565b600080fd5b600080fd5b600073ffffffffffffffffffffffffffffffffffffffff82169050919050565b60006116ff826116d4565b9050919050565b61170f816116f4565b811461171a57600080fd5b50565b60008135905061172c81611706565b92915050565b6000819050919050565b61174581611732565b811461175057600080fd5b50565b6000813590506117628161173c565b92915050565b6000806040838503121561177f5761177e6116ca565b5b600061178d8582860161171d565b925050602061179e85828601611753565b9150509250929050565b6117b181611732565b82525050565b60006020820190506117cc60008301846117a8565b92915050565b60007fffffffff0000000000000000000000000000000000000000000000000000000082169050919050565b611807816117d2565b811461181257600080fd5b50565b600081359050611824816117fe565b92915050565b6000602082840312156118405761183f6116ca565b5b600061184e84828501611815565b91505092915050565b60008115159050919050565b61186c81611857565b82525050565b60006020820190506118876000830184611863565b92915050565b6000602082840312156118a3576118a26116ca565b5b60006118b184828501611753565b91505092915050565b600081519050919050565b600082825260208201905092915050565b60005b838110156118f45780820151818401526020810190506118d9565b60008484015250505050565b6000601f19601f8301169050919050565b600061191c826118ba565b61192681856118c5565b93506119368185602086016118d6565b61193f81611900565b840191505092915050565b600060208201905081810360008301526119648184611911565b905092915050565b600080fd5b7f4e487b7100000000000000000000000000000000000000000000000000000000600052604160045260246000fd5b6119a982611900565b810181811067ffffffffffffffff821117156119c8576119c7611971565b5b80604052505050565b60006119db6116c0565b90506119e782826119a0565b919050565b600067ffffffffffffffff821115611a0757611a06611971565b5b602082029050602081019050919050565b600080fd5b6000611a30611a2b846119ec565b6119d1565b90508083825260208201905060208402830185811115611a5357611a52611a18565b5b835b81811015611a7c5780611a688882611753565b845260208401935050602081019050611a55565b5050509392505050565b600082601f830112611a9b57611a9a61196c565b5b8135611aab848260208601611a1d565b91505092915050565b600080fd5b600067ffffffffffffffff821115611ad457611ad3611971565b5b611add82611900565b9050602081019050919050565b82818337600083830152505050565b6000611b0c611b0784611ab9565b6119d1565b905082815260208101848484011115611b2857611b27611ab4565b5b611b33848285611aea565b509392505050565b600082601f830112611b5057611b4f61196c565b5b8135611b60848260208601611af9565b91505092915050565b600080600080600060a08688031215611b8557611b846116ca565b5b6000611b938882890161171d565b9550506020611ba48882890161171d565b945050604086013567ffffffffffffffff811115611bc557611bc46116cf565b5b611bd188828901611a86565b935050606086013567ffffffffffffffff811115611bf257611bf16116cf565b5b611bfe88828901611a86565b925050608086013567ffffffffffffffff811115611c1f57611c1e6116cf565b5b611c2b88828901611b3b565b9150509295509295909350565b600067ffffffffffffffff821115611c5357611c52611971565b5b602082029050602081019050919050565b6000611c77611c7284611c38565b6119d1565b90508083825260208201905060208402830185811115611c9a57611c99611a18565b5b835b81811015611cc35780611caf888261171d565b845260208401935050602081019050611c9c565b5050509392505050565b600082601f830112611ce257611ce161196c565b5b8135611cf2848260208601611c64565b91505092915050565b60008060408385031215611d1257611d116116ca565b5b600083013567ffffffffffffffff811115611d3057611d2f6116cf565b5b611d3c85828601611ccd565b925050602083013567ffffffffffffffff811115611d5d57611d5c6116cf565b5b611d6985828601611a86565b9150509250929050565b600081519050919050565b600082825260208201905092915050565b6000819050602082019050919050565b611da881611732565b82525050565b6000611dba8383611d9f565b60208301905092915050565b6000602082019050919050565b6000611dde82611d73565b611de88185611d7e565b9350611df383611d8f565b8060005b83811015611e24578151611e0b8882611dae565b9750611e1683611dc6565b925050600181019050611df7565b5085935050505092915050565b60006020820190508181036000830152611e4b8184611dd3565b905092915050565b611e5c816116f4565b82525050565b6000602082019050611e776000830184611e53565b92915050565b611e8681611857565b8114611e9157600080fd5b50565b600081359050611ea381611e7d565b92915050565b60008060408385031215611ec057611ebf6116ca565b5b6000611ece8582860161171d565b9250506020611edf85828601611e94565b9150509250929050565b60008060408385031215611f0057611eff6116ca565b5b6000611f0e8582860161171d565b9250506020611f1f8582860161171d565b9150509250929050565b600067ffffffffffffffff821115611f4457611f43611971565b5b611f4d82611900565b9050602081019050919050565b6000611f6d611f6884611f29565b6119d1565b905082815260208101848484011115611f8957611f88611ab4565b5b611f94848285611aea565b509392505050565b600082601f830112611fb157611fb061196c565b5b8135611fc1848260208601611f5a565b91505092915050565b60008060408385031215611fe157611fe06116ca565b5b6000611fef8582860161171d565b925050602083013567ffffffffffffffff8111156120105761200f6116cf565b5b61201c85828601611f9c565b9150509250929050565b600080600080600060a08688031215612042576120416116ca565b5b60006120508882890161171d565b95505060206120618882890161171d565b945050604061207288828901611753565b935050606061208388828901611753565b925050608086013567ffffffffffffffff8111156120a4576120a36116cf565b5b6120b088828901611b3b565b9150509295509295909350565b6000602082840312156120d3576120d26116ca565b5b60006120e18482850161171d565b91505092915050565b7f4e487b7100000000000000000000000000000000000000000000000000000000600052602260045260246000fd5b6000600282049050600182168061213157607f821691505b602082108103612144576121436120ea565b5b50919050565b600060408201905061215f6000830185611e53565b61216c6020830184611e53565b9392505050565b600060408201905061218860008301856117a8565b61219560208301846117a8565b9392505050565b7f4e487b7100000000000000000000000000000000000000000000000000000000600052603260045260246000fd5b7f4e487b7100000000000000000000000000000000000000000000000000000000600052601160045260246000fd5b600061220582611732565b91507fffffffffffffffffffffffffffffffffffffffffffffffffffffffffffffffff8203612237576122366121cb565b5b600182019050919050565b600061224d82611732565b915061225883611732565b92508282019050808211156122705761226f6121cb565b5b92915050565b60008190508160005260206000209050919050565b60006020601f8301049050919050565b600082821b905092915050565b6000600883026122d87fffffffffffffffffffffffffffffffffffffffffffffffffffffffffffffffff8261229b565b6122e2868361229b565b95508019841693508086168417925050509392505050565b6000819050919050565b600061231f61231a61231584611732565b6122fa565b611732565b9050919050565b6000819050919050565b61233983612304565b61234d61234582612326565b8484546122a8565b825550505050565b600090565b612362612355565b61236d818484612330565b505050565b5b818110156123915761238660008261235a565b600181019050612373565b5050565b601f8211156123d6576123a781612276565b6123b08461228b565b810160208510156123bf578190505b6123d36123cb8561228b565b830182612372565b50505b505050565b600082821c905092915050565b60006123f9600019846008026123db565b1980831691505092915050565b600061241283836123e8565b9150826002028217905092915050565b61242b826118ba565b67ffffffffffffffff81111561244457612443611971565b5b61244e8254612119565b612459828285612395565b600060209050601f83116001811461248c576000841561247a578287015190505b6124848582612406565b8655506124ec565b601f19841661249a86612276565b60005b828110156124c25784890151825560018201915060208501945060208101905061249d565b868310156124df57848901516124db601f8916826123e8565b8355505b6001600288020188555050505b505050505050565b60006080820190506125096000830187611e53565b61251660208301866117a8565b61252360408301856117a8565b61253060608301846117a8565b95945050505050565b600060408201905081810360008301526125538185611dd3565b905081810360208301526125678184611dd3565b90509392505050565b600081519050919050565b600082825260208201905092915050565b600061259782612570565b6125a1818561257b565b93506125b18185602086016118d6565b6125ba81611900565b840191505092915050565b600060a0820190506125da6000830188611e53565b6125e76020830187611e53565b6125f460408301866117a8565b61260160608301856117a8565b8181036080830152612613818461258c565b90509695505050505050565b60008151905061262e816117fe565b92915050565b60006020828403121561264a576126496116ca565b5b60006126588482850161261f565b91505092915050565b600060a0820190506126766000830188611e53565b6126836020830187611e53565b81810360408301526126958186611dd3565b905081810360608301526126a98185611dd3565b905081810360808301526126bd818461258c565b9050969550505050505056fea264697066735822122064d31f29c99b06dd4b526cad837fa8808c44099f1d05d3e749aaf053b881253d64736f6c63430008140033",
  "linkReferences": {},
  "deployedLinkReferences": {}
}