{
  "_format": "hh-sol-artifact-1",
  "contractName": "MemoryMatchNFT",
  "sourceName": "contracts/MemoryMatchNFT.sol",
  "abi": [
    {
      "inputs": [],
      "stateMutability": "nonpayable",
      "type": "constructor"
    },
    {
      "inputs": [
        {
          "internalType": "address",
          "name": "sender",
          "type": "address"
        },
        {
          "internalType": "uint256",
          "name": "tokenId",
          "type": "uint256"
        },
        {
          "internalType": "address",
          "name": "owner",
          "type": "address"
        }
      ],
      "name": "ERC721IncorrectOwner",
      "type": "error"
    },
    {
      "inputs": [
        {
          "internalType": "address",
          "name": "operator",
          "type": "address"
        },
        {
          "internalType": "uint256",
          "name": "tokenId",
          "type": "uint256"
        }
      ],
      "name": "ERC721InsufficientApproval",
      "type": "error"
    },
    {
      "inputs": [
        {
          "internalType": "address",
          "name": "approver",
          "type": "address"
        }
      ],
      "name": "ERC721InvalidApprover",
      "type": "error"
    },
    {
      "inputs": [
        {
          "internalType": "address",
          "name": "operator",
          "type": "address"
        }
      ],
      "name": "ERC721InvalidOperator",
      "type": "error"
    },
    {
      "inputs": [
        {
          "internalType": "address",
          "name": "owner",
          "type": "address"
        }
      ],
      "name": "ERC721InvalidOwner",
      "type": "error"
    },
    {
      "inputs": [
        {
          "internalType": "address",
          "name": "receiver",
          "type": "address"
        }
      ],
      "name": "ERC721InvalidReceiver",
      "type": "error"
    },
    {
      "inputs": [
        {
          "internalType": "address",
          "name": "sender",
          "type": "address"
        }
      ],
      "name": "ERC721InvalidSender",
      "type": "error"
    },
    {
      "inputs": [
        {
          "internalType": "uint256",
          "name": "tokenId",
          "type": "uint256"
        }
      ],
      "name": "ERC721NonexistentToken",
      "type": "error"
    },
    {
      "anonymous": false,
      "inputs": [
        {
          "indexed": true,
          "internalType": "address",
          "name": "owner",
          "type": "address"
        },
        {
          "indexed": true,
          "internalType": "address",
          "name": "approved",
          "type": "address"
        },
        {
          "indexed": true,
          "internalType": "uint256",
          "name": "tokenId",
          "type": "uint256"
        }
      ],
      "name": "Approval",
      "type": "event"
    },
    {
      "anonymous": false,
      "inputs": [
        {
          "indexed": true,
          "internalType": "address",
          "name": "owner",
          "type": "address"
        },
        {
          "indexed": true,
          "internalType": "address",
          "name": "operator",
          "type": "address"
        },
        {
          "indexed": false,
          "internalType": "bool",
          "name": "approved",
          "type": "bool"
        }
      ],
      "name": "ApprovalForAll",
      "type": "event"
    },
    {
      "anonymous": false,
      "inputs": [
        {
          "indexed": false,
          "internalType": "uint256",
          "name": "_fromTokenId",
          "type": "uint256"
        },
        {
          "indexed": false,
          "internalType": "uint256",
          "name": "_toTokenId",
          "type": "uint256"
        }
      ],
      "name": "BatchMetadataUpdate",
      "type": "event"
    },
    {
      "anonymous": false,
      "inputs": [
        {
          "indexed": false,
          "internalType": "uint256",
          "name": "_tokenId",
          "type": "uint256"
        }
      ],
      "name": "MetadataUpdate",
      "type": "event"
    },
    {
      "anonymous": false,
      "inputs": [
        {
          "indexed": true,
          "internalType": "address",
          "name": "from",
          "type": "address"
        },
        {
          "indexed": true,
          "internalType": "address",
          "name": "to",
          "type": "address"
        },
        {
          "indexed": true,
          "internalType": "uint256",
          "name": "tokenId",
          "type": "uint256"
        }
      ],
      "name": "Transfer",
      "type": "event"
    },
    {
      "inputs": [],
      "name": "_tokenIdCounter",
      "outputs": [
        {
          "internalType": "uint256",
          "name": "",
          "type": "uint256"
        }
      ],
      "stateMutability": "view",
      "type": "function"
    },
    {
      "inputs": [
        {
          "internalType": "address",
          "name": "to",
          "type": "address"
        },
        {
          "internalType": "uint256",
          "name": "tokenId",
          "type": "uint256"
        }
      ],
      "name": "approve",
      "outputs": [],
      "stateMutability": "nonpayable",
      "type": "function"
    },
    {
      "inputs": [
        {
          "internalType": "address",
          "name": "owner",
          "type": "address"
        }
      ],
      "name": "balanceOf",
      "outputs": [
        {
          "internalType": "uint256",
          "name": "",
          "type": "uint256"
        }
      ],
      "stateMutability": "view",
      "type": "function"
    },
    {
      "inputs": [
        {
          "internalType": "uint256",
          "name": "tokenId",
          "type": "uint256"
        }
      ],
      "name": "getApproved",
      "outputs": [
        {
          "internalType": "address",
          "name": "",
          "type": "address"
        }
      ],
      "stateMutability": "view",
      "type": "function"
    },
    {
      "inputs": [
        {
          "internalType": "address",
          "name": "owner",
          "type": "address"
        },
        {
          "internalType": "address",
          "name": "operator",
          "type": "address"
        }
      ],
      "name": "isApprovedForAll",
      "outputs": [
        {
          "internalType": "bool",
          "name": "",
          "type": "bool"
        }
      ],
      "stateMutability": "view",
      "type": "function"
    },
    {
      "inputs": [
        {
          "internalType": "address",
          "name": "to",
          "type": "address"
        },
        {
          "internalType": "string",
          "name": "uri",
          "type": "string"
        }
      ],
      "name": "mintNFT",
      "outputs": [
        {
          "internalType": "uint256",
          "name": "",
          "type": "uint256"
        }
      ],
      "stateMutability": "nonpayable",
      "type": "function"
    },
    {
      "inputs": [],
      "name": "name",
      "outputs": [
        {
          "internalType": "string",
          "name": "",
          "type": "string"
        }
      ],
      "stateMutability": "view",
      "type": "function"
    },
    {
      "inputs": [
        {
          "internalType": "uint256",
          "name": "tokenId",
          "type": "uint256"
        }
      ],
      "name": "ownerOf",
      "outputs": [
        {
          "internalType": "address",
          "name": "",
          "type": "address"
        }
      ],
      "stateMutability": "view",
      "type": "function"
    },
    {
      "inputs": [
        {
          "internalType": "address",
          "name": "from",
          "type": "address"
        },
        {
          "internalType": "address",
          "name": "to",
          "type": "address"
        },
        {
          "internalType": "uint256",
          "name": "tokenId",
          "type": "uint256"
        }
      ],
      "name": "safeTransferFrom",
      "outputs": [],
      "stateMutability": "nonpayable",
      "type": "function"
    },
    {
      "inputs": [
        {
          "internalType": "address",
          "name": "from",
          "type": "address"
        },
        {
          "internalType": "address",
          "name": "to",
          "type": "address"
        },
        {
          "internalType": "uint256",
          "name": "tokenId",
          "type": "uint256"
        },
        {
          "internalType": "bytes",
          "name": "data",
          "type": "bytes"
        }
      ],
      "name": "safeTransferFrom",
      "outputs": [],
      "stateMutability": "nonpayable",
      "type": "function"
    },
    {
      "inputs": [
        {
          "internalType": "address",
          "name": "operator",
          "type": "address"
        },
        {
          "internalType": "bool",
          "name": "approved",
          "type": "bool"
        }
      ],
      "name": "setApprovalForAll",
      "outputs": [],
      "stateMutability": "nonpayable",
      "type": "function"
    },
    {
      "inputs": [
        {
          "internalType": "bytes4",
          "name": "interfaceId",
          "type": "bytes4"
        }
      ],
      "name": "supportsInterface",
      "outputs": [
        {
          "internalType": "bool",
          "name": "",
          "type": "bool"
        }
      ],
      "stateMutability": "view",
      "type": "function"
    },
    {
      "inputs": [],
      "name": "symbol",
      "outputs": [
        {
          "internalType": "string",
          "name": "",
          "type": "string"
        }
      ],
      "stateMutability": "view",
      "type": "function"
    },
    {
      "inputs": [
        {
          "internalType": "uint256",
          "name": "tokenId",
          "type": "uint256"
        }
      ],
      "name": "tokenURI",
      "outputs": [
        {
          "internalType": "string",
          "name": "",
          "type": "string"
        }
      ],
      "stateMutability": "view",
      "type": "function"
    },
    {
      "inputs": [
        {
          "internalType": "address",
          "name": "from",
          "type": "address"
        },
        {
          "internalType": "address",
          "name": "to",
          "type": "address"
        },
        {
          "internalType": "uint256",
          "name": "tokenId",
          "type": "uint256"
        }
      ],
      "name": "transferFrom",
      "outputs": [],
      "stateMutability": "nonpayable",
      "type": "function"
    }
  ],
  "bytecode": "0x60806040523480156200001157600080fd5b506040518060400160405280600e81526020017f4d656d6f72794d617463684e46540000000000000000000000000000000000008152506040518060400160405280600581526020017f4d4d4e465400000000000000000000000000000000000000000000000000000081525081600090816200008f91906200032c565b508060019081620000a191906200032c565b505050600060078190555062000413565b600081519050919050565b7f4e487b7100000000000000000000000000000000000000000000000000000000600052604160045260246000fd5b7f4e487b7100000000000000000000000000000000000000000000000000000000600052602260045260246000fd5b600060028204905060018216806200013457607f821691505b6020821081036200014a5762000149620000ec565b5b50919050565b60008190508160005260206000209050919050565b60006020601f8301049050919050565b600082821b905092915050565b600060088302620001b47fffffffffffffffffffffffffffffffffffffffffffffffffffffffffffffffff8262000175565b620001c0868362000175565b95508019841693508086168417925050509392505050565b6000819050919050565b6000819050919050565b60006200020d620002076200020184620001d8565b620001e2565b620001d8565b9050919050565b6000819050919050565b6200022983620001ec565b62000241620002388262000214565b84845462000182565b825550505050565b600090565b6200025862000249565b620002658184846200021e565b505050565b5b818110156200028d57620002816000826200024e565b6001810190506200026b565b5050565b601f821115620002dc57620002a68162000150565b620002b18462000165565b81016020851015620002c1578190505b620002d9620002d08562000165565b8301826200026a565b50505b505050565b600082821c905092915050565b60006200030160001984600802620002e1565b1980831691505092915050565b60006200031c8383620002ee565b9150826002028217905092915050565b6200033782620000b2565b67ffffffffffffffff811115620003535762000352620000bd565b5b6200035f82546200011b565b6200036c82828562000291565b600060209050601f831160018114620003a457600084156200038f578287015190505b6200039b85826200030e565b8655506200040b565b601f198416620003b48662000150565b60005b82811015620003de57848901518255600182019150602085019450602081019050620003b7565b86831015620003fe5784890151620003fa601f891682620002ee565b8355505b6001600288020188555050505b505050505050565b61244680620004236000396000f3fe608060405234801561001057600080fd5b50600436106100f55760003560e01c806370a0823111610097578063b88d4fde11610066578063b88d4fde14610284578063c87b56dd146102a0578063e985e9c5146102d0578063eacabe1414610300576100f5565b806370a08231146101fc57806384c4bd4b1461022c57806395d89b411461024a578063a22cb46514610268576100f5565b8063095ea7b3116100d3578063095ea7b31461017857806323b872dd1461019457806342842e0e146101b05780636352211e146101cc576100f5565b806301ffc9a7146100fa57806306fdde031461012a578063081812fc14610148575b600080fd5b610114600480360381019061010f91906118b2565b610330565b60405161012191906118fa565b60405180910390f35b610132610342565b60405161013f91906119a5565b60405180910390f35b610162600480360381019061015d91906119fd565b6103d4565b60405161016f9190611a6b565b60405180910390f35b610192600480360381019061018d9190611ab2565b6103f0565b005b6101ae60048036038101906101a99190611af2565b610406565b005b6101ca60048036038101906101c59190611af2565b610508565b005b6101e660048036038101906101e191906119fd565b610528565b6040516101f39190611a6b565b60405180910390f35b61021660048036038101906102119190611b45565b61053a565b6040516102239190611b81565b60405180910390f35b6102346105f4565b6040516102419190611b81565b60405180910390f35b6102526105fa565b60405161025f91906119a5565b60405180910390f35b610282600480360381019061027d9190611bc8565b61068c565b005b61029e60048036038101906102999190611d3d565b6106a2565b005b6102ba60048036038101906102b591906119fd565b6106c7565b6040516102c791906119a5565b60405180910390f35b6102ea60048036038101906102e59190611dc0565b6106d9565b6040516102f791906118fa565b60405180910390f35b61031a60048036038101906103159190611ea1565b61076d565b6040516103279190611b81565b60405180910390f35b600061033b826107ae565b9050919050565b60606000805461035190611f2c565b80601f016020809104026020016040519081016040528092919081815260200182805461037d90611f2c565b80156103ca5780601f1061039f576101008083540402835291602001916103ca565b820191906000526020600020905b8154815290600101906020018083116103ad57829003601f168201915b5050505050905090565b60006103df8261080f565b506103e982610897565b9050919050565b61040282826103fd6108d4565b6108dc565b5050565b600073ffffffffffffffffffffffffffffffffffffffff168273ffffffffffffffffffffffffffffffffffffffff16036104785760006040517f64a0ae9200000000000000000000000000000000000000000000000000000000815260040161046f9190611a6b565b60405180910390fd5b600061048c83836104876108d4565b6108ee565b90508373ffffffffffffffffffffffffffffffffffffffff168173ffffffffffffffffffffffffffffffffffffffff1614610502578382826040517f64283d7b0000000000000000000000000000000000000000000000000000000081526004016104f993929190611f5d565b60405180910390fd5b50505050565b610523838383604051806020016040528060008152506106a2565b505050565b60006105338261080f565b9050919050565b60008073ffffffffffffffffffffffffffffffffffffffff168273ffffffffffffffffffffffffffffffffffffffff16036105ad5760006040517f89c62b640000000000000000000000000000000000000000000000000000000081526004016105a49190611a6b565b60405180910390fd5b600360008373ffffffffffffffffffffffffffffffffffffffff1673ffffffffffffffffffffffffffffffffffffffff168152602001908152602001600020549050919050565b60075481565b60606001805461060990611f2c565b80601f016020809104026020016040519081016040528092919081815260200182805461063590611f2c565b80156106825780601f1061065757610100808354040283529160200191610682565b820191906000526020600020905b81548152906001019060200180831161066557829003601f168201915b5050505050905090565b61069e6106976108d4565b8383610b08565b5050565b6106ad848484610406565b6106c16106b86108d4565b85858585610c77565b50505050565b60606106d282610e28565b9050919050565b6000600560008473ffffffffffffffffffffffffffffffffffffffff1673ffffffffffffffffffffffffffffffffffffffff16815260200190815260200160002060008373ffffffffffffffffffffffffffffffffffffffff1673ffffffffffffffffffffffffffffffffffffffff16815260200190815260200160002060009054906101000a900460ff16905092915050565b60006001600760008282546107829190611fc3565b925050819055506000600754905061079a8482610f3b565b6107a48184610f59565b8091505092915050565b6000634906490660e01b7bffffffffffffffffffffffffffffffffffffffffffffffffffffffff1916827bffffffffffffffffffffffffffffffffffffffffffffffffffffffff19161480610808575061080782610fb5565b5b9050919050565b60008061081b83611097565b9050600073ffffffffffffffffffffffffffffffffffffffff168173ffffffffffffffffffffffffffffffffffffffff160361088e57826040517f7e2732890000000000000000000000000000000000000000000000000000000081526004016108859190611b81565b60405180910390fd5b80915050919050565b60006004600083815260200190815260200160002060009054906101000a900473ffffffffffffffffffffffffffffffffffffffff169050919050565b600033905090565b6108e983838360016110d4565b505050565b6000806108fa84611097565b9050600073ffffffffffffffffffffffffffffffffffffffff168373ffffffffffffffffffffffffffffffffffffffff161461093c5761093b818486611299565b5b600073ffffffffffffffffffffffffffffffffffffffff168173ffffffffffffffffffffffffffffffffffffffff16146109cd5761097e6000856000806110d4565b6001600360008373ffffffffffffffffffffffffffffffffffffffff1673ffffffffffffffffffffffffffffffffffffffff168152602001908152602001600020600082825403925050819055505b600073ffffffffffffffffffffffffffffffffffffffff168573ffffffffffffffffffffffffffffffffffffffff1614610a50576001600360008773ffffffffffffffffffffffffffffffffffffffff1673ffffffffffffffffffffffffffffffffffffffff168152602001908152602001600020600082825401925050819055505b846002600086815260200190815260200160002060006101000a81548173ffffffffffffffffffffffffffffffffffffffff021916908373ffffffffffffffffffffffffffffffffffffffff160217905550838573ffffffffffffffffffffffffffffffffffffffff168273ffffffffffffffffffffffffffffffffffffffff167fddf252ad1be2c89b69c2b068fc378daa952ba7f163c4a11628f55a4df523b3ef60405160405180910390a4809150509392505050565b600073ffffffffffffffffffffffffffffffffffffffff168273ffffffffffffffffffffffffffffffffffffffff1603610b7957816040517f5b08ba18000000000000000000000000000000000000000000000000000000008152600401610b709190611a6b565b60405180910390fd5b80600560008573ffffffffffffffffffffffffffffffffffffffff1673ffffffffffffffffffffffffffffffffffffffff16815260200190815260200160002060008473ffffffffffffffffffffffffffffffffffffffff1673ffffffffffffffffffffffffffffffffffffffff16815260200190815260200160002060006101000a81548160ff0219169083151502179055508173ffffffffffffffffffffffffffffffffffffffff168373ffffffffffffffffffffffffffffffffffffffff167f17307eab39ab6107e8899845ad3d59bd9653f200f220920489ca2b5937696c3183604051610c6a91906118fa565b60405180910390a3505050565b60008373ffffffffffffffffffffffffffffffffffffffff163b1115610e21578273ffffffffffffffffffffffffffffffffffffffff1663150b7a02868685856040518563ffffffff1660e01b8152600401610cd6949392919061204c565b6020604051808303816000875af1925050508015610d1257506040513d601f19601f82011682018060405250810190610d0f91906120ad565b60015b610d96573d8060008114610d42576040519150601f19603f3d011682016040523d82523d6000602084013e610d47565b606091505b506000815103610d8e57836040517f64a0ae92000000000000000000000000000000000000000000000000000000008152600401610d859190611a6b565b60405180910390fd5b805181602001fd5b63150b7a0260e01b7bffffffffffffffffffffffffffffffffffffffffffffffffffffffff1916817bffffffffffffffffffffffffffffffffffffffffffffffffffffffff191614610e1f57836040517f64a0ae92000000000000000000000000000000000000000000000000000000008152600401610e169190611a6b565b60405180910390fd5b505b5050505050565b6060610e338261080f565b506000600660008481526020019081526020016000208054610e5490611f2c565b80601f0160208091040260200160405190810160405280929190818152602001828054610e8090611f2c565b8015610ecd5780601f10610ea257610100808354040283529160200191610ecd565b820191906000526020600020905b815481529060010190602001808311610eb057829003601f168201915b505050505090506000610ede61135d565b90506000815103610ef3578192505050610f36565b600082511115610f28578082604051602001610f10929190612116565b60405160208183030381529060405292505050610f36565b610f3184611374565b925050505b919050565b610f558282604051806020016040528060008152506113dd565b5050565b80600660008481526020019081526020016000209081610f7991906122e6565b507ff8e1a15aba9398e019f0b49df1a4fde98ee17ae345cb5f6b5e2c27f5033e8ce782604051610fa99190611b81565b60405180910390a15050565b60007f80ac58cd000000000000000000000000000000000000000000000000000000007bffffffffffffffffffffffffffffffffffffffffffffffffffffffff1916827bffffffffffffffffffffffffffffffffffffffffffffffffffffffff1916148061108057507f5b5e139f000000000000000000000000000000000000000000000000000000007bffffffffffffffffffffffffffffffffffffffffffffffffffffffff1916827bffffffffffffffffffffffffffffffffffffffffffffffffffffffff1916145b80611090575061108f82611401565b5b9050919050565b60006002600083815260200190815260200160002060009054906101000a900473ffffffffffffffffffffffffffffffffffffffff169050919050565b808061110d5750600073ffffffffffffffffffffffffffffffffffffffff168273ffffffffffffffffffffffffffffffffffffffff1614155b1561124157600061111d8461080f565b9050600073ffffffffffffffffffffffffffffffffffffffff168373ffffffffffffffffffffffffffffffffffffffff161415801561118857508273ffffffffffffffffffffffffffffffffffffffff168173ffffffffffffffffffffffffffffffffffffffff1614155b801561119b575061119981846106d9565b155b156111dd57826040517fa9fbf51f0000000000000000000000000000000000000000000000000000000081526004016111d49190611a6b565b60405180910390fd5b811561123f57838573ffffffffffffffffffffffffffffffffffffffff168273ffffffffffffffffffffffffffffffffffffffff167f8c5be1e5ebec7d5bd14f71427d1e84f3dd0314c0f7b2291e5b200ac8c7c3b92560405160405180910390a45b505b836004600085815260200190815260200160002060006101000a81548173ffffffffffffffffffffffffffffffffffffffff021916908373ffffffffffffffffffffffffffffffffffffffff16021790555050505050565b6112a483838361146b565b61135857600073ffffffffffffffffffffffffffffffffffffffff168373ffffffffffffffffffffffffffffffffffffffff160361131957806040517f7e2732890000000000000000000000000000000000000000000000000000000081526004016113109190611b81565b60405180910390fd5b81816040517f177e802f00000000000000000000000000000000000000000000000000000000815260040161134f9291906123b8565b60405180910390fd5b505050565b606060405180602001604052806000815250905090565b606061137f8261080f565b50600061138a61135d565b905060008151116113aa57604051806020016040528060008152506113d5565b806113b48461152c565b6040516020016113c5929190612116565b6040516020818303038152906040525b915050919050565b6113e783836115fa565b6113fc6113f26108d4565b6000858585610c77565b505050565b60007f01ffc9a7000000000000000000000000000000000000000000000000000000007bffffffffffffffffffffffffffffffffffffffffffffffffffffffff1916827bffffffffffffffffffffffffffffffffffffffffffffffffffffffff1916149050919050565b60008073ffffffffffffffffffffffffffffffffffffffff168373ffffffffffffffffffffffffffffffffffffffff161415801561152357508273ffffffffffffffffffffffffffffffffffffffff168473ffffffffffffffffffffffffffffffffffffffff1614806114e457506114e384846106d9565b5b8061152257508273ffffffffffffffffffffffffffffffffffffffff1661150a83610897565b73ffffffffffffffffffffffffffffffffffffffff16145b5b90509392505050565b60606000600161153b846116f3565b01905060008167ffffffffffffffff81111561155a57611559611c12565b5b6040519080825280601f01601f19166020018201604052801561158c5781602001600182028036833780820191505090505b509050600082602001820190505b6001156115ef578080600190039150507f3031323334353637383961626364656600000000000000000000000000000000600a86061a8153600a85816115e3576115e26123e1565b5b0494506000850361159a575b819350505050919050565b600073ffffffffffffffffffffffffffffffffffffffff168273ffffffffffffffffffffffffffffffffffffffff160361166c5760006040517f64a0ae920000000000000000000000000000000000000000000000000000000081526004016116639190611a6b565b60405180910390fd5b600061167a838360006108ee565b9050600073ffffffffffffffffffffffffffffffffffffffff168173ffffffffffffffffffffffffffffffffffffffff16146116ee5760006040517f73c6ac6e0000000000000000000000000000000000000000000000000000000081526004016116e59190611a6b565b60405180910390fd5b505050565b600080600090507a184f03e93ff9f4daa797ed6e38ed64bf6a1f0100000000000000008310611751577a184f03e93ff9f4daa797ed6e38ed64bf6a1f0100000000000000008381611747576117466123e1565b5b0492506040810190505b6d04ee2d6d415b85acef8100000000831061178e576d04ee2d6d415b85acef81000000008381611784576117836123e1565b5b0492506020810190505b662386f26fc1000083106117bd57662386f26fc1000083816117b3576117b26123e1565b5b0492506010810190505b6305f5e10083106117e6576305f5e10083816117dc576117db6123e1565b5b0492506008810190505b612710831061180b576127108381611801576118006123e1565b5b0492506004810190505b6064831061182e5760648381611824576118236123e1565b5b0492506002810190505b600a831061183d576001810190505b80915050919050565b6000604051905090565b600080fd5b600080fd5b60007fffffffff0000000000000000000000000000000000000000000000000000000082169050919050565b61188f8161185a565b811461189a57600080fd5b50565b6000813590506118ac81611886565b92915050565b6000602082840312156118c8576118c7611850565b5b60006118d68482850161189d565b91505092915050565b60008115159050919050565b6118f4816118df565b82525050565b600060208201905061190f60008301846118eb565b92915050565b600081519050919050565b600082825260208201905092915050565b60005b8381101561194f578082015181840152602081019050611934565b60008484015250505050565b6000601f19601f8301169050919050565b600061197782611915565b6119818185611920565b9350611991818560208601611931565b61199a8161195b565b840191505092915050565b600060208201905081810360008301526119bf818461196c565b905092915050565b6000819050919050565b6119da816119c7565b81146119e557600080fd5b50565b6000813590506119f7816119d1565b92915050565b600060208284031215611a1357611a12611850565b5b6000611a21848285016119e8565b91505092915050565b600073ffffffffffffffffffffffffffffffffffffffff82169050919050565b6000611a5582611a2a565b9050919050565b611a6581611a4a565b82525050565b6000602082019050611a806000830184611a5c565b92915050565b611a8f81611a4a565b8114611a9a57600080fd5b50565b600081359050611aac81611a86565b92915050565b60008060408385031215611ac957611ac8611850565b5b6000611ad785828601611a9d565b9250506020611ae8858286016119e8565b9150509250929050565b600080600060608486031215611b0b57611b0a611850565b5b6000611b1986828701611a9d565b9350506020611b2a86828701611a9d565b9250506040611b3b868287016119e8565b9150509250925092565b600060208284031215611b5b57611b5a611850565b5b6000611b6984828501611a9d565b91505092915050565b611b7b816119c7565b82525050565b6000602082019050611b966000830184611b72565b92915050565b611ba5816118df565b8114611bb057600080fd5b50565b600081359050611bc281611b9c565b92915050565b60008060408385031215611bdf57611bde611850565b5b6000611bed85828601611a9d565b9250506020611bfe85828601611bb3565b9150509250929050565b600080fd5b600080fd5b7f4e487b7100000000000000000000000000000000000000000000000000000000600052604160045260246000fd5b611c4a8261195b565b810181811067ffffffffffffffff82111715611c6957611c68611c12565b5b80604052505050565b6000611c7c611846565b9050611c888282611c41565b919050565b600067ffffffffffffffff821115611ca857611ca7611c12565b5b611cb18261195b565b9050602081019050919050565b82818337600083830152505050565b6000611ce0611cdb84611c8d565b611c72565b905082815260208101848484011115611cfc57611cfb611c0d565b5b611d07848285611cbe565b509392505050565b600082601f830112611d2457611d23611c08565b5b8135611d34848260208601611ccd565b91505092915050565b60008060008060808587031215611d5757611d56611850565b5b6000611d6587828801611a9d565b9450506020611d7687828801611a9d565b9350506040611d87878288016119e8565b925050606085013567ffffffffffffffff811115611da857611da7611855565b5b611db487828801611d0f565b91505092959194509250565b60008060408385031215611dd757611dd6611850565b5b6000611de585828601611a9d565b9250506020611df685828601611a9d565b9150509250929050565b600067ffffffffffffffff821115611e1b57611e1a611c12565b5b611e248261195b565b9050602081019050919050565b6000611e44611e3f84611e00565b611c72565b905082815260208101848484011115611e6057611e5f611c0d565b5b611e6b848285611cbe565b509392505050565b600082601f830112611e8857611e87611c08565b5b8135611e98848260208601611e31565b91505092915050565b60008060408385031215611eb857611eb7611850565b5b6000611ec685828601611a9d565b925050602083013567ffffffffffffffff811115611ee757611ee6611855565b5b611ef385828601611e73565b9150509250929050565b7f4e487b7100000000000000000000000000000000000000000000000000000000600052602260045260246000fd5b60006002820490506001821680611f4457607f821691505b602082108103611f5757611f56611efd565b5b50919050565b6000606082019050611f726000830186611a5c565b611f7f6020830185611b72565b611f8c6040830184611a5c565b949350505050565b7f4e487b7100000000000000000000000000000000000000000000000000000000600052601160045260246000fd5b6000611fce826119c7565b9150611fd9836119c7565b9250828201905080821115611ff157611ff0611f94565b5b92915050565b600081519050919050565b600082825260208201905092915050565b600061201e82611ff7565b6120288185612002565b9350612038818560208601611931565b6120418161195b565b840191505092915050565b60006080820190506120616000830187611a5c565b61206e6020830186611a5c565b61207b6040830185611b72565b818103606083015261208d8184612013565b905095945050505050565b6000815190506120a781611886565b92915050565b6000602082840312156120c3576120c2611850565b5b60006120d184828501612098565b91505092915050565b600081905092915050565b60006120f082611915565b6120fa81856120da565b935061210a818560208601611931565b80840191505092915050565b600061212282856120e5565b915061212e82846120e5565b91508190509392505050565b60008190508160005260206000209050919050565b60006020601f8301049050919050565b600082821b905092915050565b60006008830261219c7fffffffffffffffffffffffffffffffffffffffffffffffffffffffffffffffff8261215f565b6121a6868361215f565b95508019841693508086168417925050509392505050565b6000819050919050565b60006121e36121de6121d9846119c7565b6121be565b6119c7565b9050919050565b6000819050919050565b6121fd836121c8565b612211612209826121ea565b84845461216c565b825550505050565b600090565b612226612219565b6122318184846121f4565b505050565b5b818110156122555761224a60008261221e565b600181019050612237565b5050565b601f82111561229a5761226b8161213a565b6122748461214f565b81016020851015612283578190505b61229761228f8561214f565b830182612236565b50505b505050565b600082821c905092915050565b60006122bd6000198460080261229f565b1980831691505092915050565b60006122d683836122ac565b9150826002028217905092915050565b6122ef82611915565b67ffffffffffffffff81111561230857612307611c12565b5b6123128254611f2c565b61231d828285612259565b600060209050601f831160018114612350576000841561233e578287015190505b61234885826122ca565b8655506123b0565b601f19841661235e8661213a565b60005b8281101561238657848901518255600182019150602085019450602081019050612361565b868310156123a3578489015161239f601f8916826122ac565b8355505b6001600288020188555050505b505050505050565b60006040820190506123cd6000830185611a5c565b6123da6020830184611b72565b9392505050565b7f4e487b7100000000000000000000000000000000000000000000000000000000600052601260045260246000fdfea26469706673582212209efbc7c88de11cfa353a63fcc30ee10bb75f795488bc5e203531a2f7dfcbd01864736f6c63430008140033",
  "linkReferences": {},
  "deployedLinkReferences": {}
}